{"abi":[{"type":"constructor","inputs":[{"name":"_mailbox","type":"address","internalType":"address"},{"name":"_erc8004Registry","type":"address","internalType":"address"}],"stateMutability":"nonpayable"},{"type":"function","name":"COOLDOWN_PERIOD","inputs":[],"outputs":[{"name":"","type":"uint64","internalType":"uint64"}],"stateMutability":"view"},{"type":"function","name":"admin","inputs":[],"outputs":[{"name":"","type":"address","internalType":"address"}],"stateMutability":"view"},{"type":"function","name":"bridgeReputation","inputs":[{"name":"destinationDomain","type":"uint32","internalType":"uint32"},{"name":"recipient","type":"bytes32","internalType":"bytes32"}],"outputs":[{"name":"messageId","type":"bytes32","internalType":"bytes32"}],"stateMutability":"payable"},{"type":"function","name":"erc8004Registry","inputs":[],"outputs":[{"name":"","type":"address","internalType":"contract IERC8004Registry"}],"stateMutability":"view"},{"type":"function","name":"lastBridgeTime","inputs":[{"name":"","type":"address","internalType":"address"}],"outputs":[{"name":"","type":"uint64","internalType":"uint64"}],"stateMutability":"view"},{"type":"function","name":"mailbox","inputs":[],"outputs":[{"name":"","type":"address","internalType":"contract IMailbox"}],"stateMutability":"view"},{"type":"function","name":"nonces","inputs":[{"name":"","type":"address","internalType":"address"}],"outputs":[{"name":"","type":"uint64","internalType":"uint64"}],"stateMutability":"view"},{"type":"function","name":"quoteDispatch","inputs":[{"name":"destinationDomain","type":"uint32","internalType":"uint32"},{"name":"recipient","type":"bytes32","internalType":"bytes32"}],"outputs":[{"name":"fee","type":"uint256","internalType":"uint256"}],"stateMutability":"view"},{"type":"function","name":"setERC8004Registry","inputs":[{"name":"_registry","type":"address","internalType":"address"}],"outputs":[],"stateMutability":"nonpayable"},{"type":"event","name":"ERC8004RegistryUpdated","inputs":[{"name":"oldRegistry","type":"address","indexed":false,"internalType":"address"},{"name":"newRegistry","type":"address","indexed":false,"internalType":"address"}],"anonymous":false},{"type":"event","name":"ReputationBridged","inputs":[{"name":"agent","type":"address","indexed":true,"internalType":"address"},{"name":"destinationDomain","type":"uint32","indexed":true,"internalType":"uint32"},{"name":"recipient","type":"bytes32","indexed":true,"internalType":"bytes32"},{"name":"score","type":"uint256","indexed":false,"internalType":"uint256"},{"name":"nonce","type":"uint64","indexed":false,"internalType":"uint64"},{"name":"messageId","type":"bytes32","indexed":false,"internalType":"bytes32"}],"anonymous":false},{"type":"error","name":"Cooldown","inputs":[]},{"type":"error","name":"InsufficientFee","inputs":[]},{"type":"error","name":"NoReputationFound","inputs":[]},{"type":"error","name":"ZeroAddress","inputs":[]}],"bytecode":{"object":"0x60a06040523480156200001157600080fd5b5060405162001530380380620015308339818101604052810190620000379190620001c5565b600073ffffffffffffffffffffffffffffffffffffffff168273ffffffffffffffffffffffffffffffffffffffff16036200009e576040517fd92e233d00000000000000000000000000000000000000000000000000000000815260040160405180910390fd5b8173ffffffffffffffffffffffffffffffffffffffff1660808173ffffffffffffffffffffffffffffffffffffffff1681525050806000806101000a81548173ffffffffffffffffffffffffffffffffffffffff021916908373ffffffffffffffffffffffffffffffffffffffff16021790555033600160006101000a81548173ffffffffffffffffffffffffffffffffffffffff021916908373ffffffffffffffffffffffffffffffffffffffff16021790555050506200020c565b600080fd5b600073ffffffffffffffffffffffffffffffffffffffff82169050919050565b60006200018d8262000160565b9050919050565b6200019f8162000180565b8114620001ab57600080fd5b50565b600081519050620001bf8162000194565b92915050565b60008060408385031215620001df57620001de6200015b565b5b6000620001ef85828601620001ae565b92505060206200020285828601620001ae565b9150509250929050565b6080516112f36200023d6000396000818161043b01528181610515015281816108ff01526109a601526112f36000f3fe6080604052600436106100865760003560e01c80636e99d52f116100595780636e99d52f1461014c5780637ecebe0014610177578063bf3cf0d3146101b4578063d5438eae146101f1578063f851a4401461021c57610086565b8063162af8f51461008b578063319e38f6146100bb5780635c30a8e1146100f85780636b249af814610123575b600080fd5b6100a560048036038101906100a09190610b08565b610247565b6040516100b29190610b57565b60405180910390f35b3480156100c757600080fd5b506100e260048036038101906100dd9190610bd0565b6106dc565b6040516100ef9190610c20565b60405180910390f35b34801561010457600080fd5b5061010d610703565b60405161011a9190610c9a565b60405180910390f35b34801561012f57600080fd5b5061014a60048036038101906101459190610bd0565b610727565b005b34801561015857600080fd5b50610161610853565b60405161016e9190610c20565b60405180910390f35b34801561018357600080fd5b5061019e60048036038101906101999190610bd0565b61085a565b6040516101ab9190610c20565b60405180910390f35b3480156101c057600080fd5b506101db60048036038101906101d69190610b08565b610881565b6040516101e89190610cce565b60405180910390f35b3480156101fd57600080fd5b506102066109a4565b6040516102139190610d0a565b60405180910390f35b34801561022857600080fd5b506102316109c8565b60405161023e9190610d34565b60405180910390f35b600062015180600360003373ffffffffffffffffffffffffffffffffffffffff1673ffffffffffffffffffffffffffffffffffffffff16815260200190815260200160002060009054906101000a900467ffffffffffffffff166102ab9190610d7e565b67ffffffffffffffff164210156102ee576040517fb0782df700000000000000000000000000000000000000000000000000000000815260040160405180910390fd5b6000806102fa336109ee565b9150915060008203610338576040517f0a904ea900000000000000000000000000000000000000000000000000000000815260040160405180910390fd5b6000600260003373ffffffffffffffffffffffffffffffffffffffff1673ffffffffffffffffffffffffffffffffffffffff168152602001908152602001600020600081819054906101000a900467ffffffffffffffff1661039990610dba565b91906101000a81548167ffffffffffffffff021916908367ffffffffffffffff1602179055905042600360003373ffffffffffffffffffffffffffffffffffffffff1673ffffffffffffffffffffffffffffffffffffffff16815260200190815260200160002060006101000a81548167ffffffffffffffff021916908367ffffffffffffffff16021790555060006104353385428587610a5a565b905060007f000000000000000000000000000000000000000000000000000000000000000073ffffffffffffffffffffffffffffffffffffffff16639c42bd188989856040518463ffffffff1660e01b815260040161049693929190610e89565b602060405180830381865afa1580156104b3573d6000803e3d6000fd5b505050506040513d601f19601f820116820180604052508101906104d79190610ef3565b905080341015610513576040517f025dbdd400000000000000000000000000000000000000000000000000000000815260040160405180910390fd5b7f000000000000000000000000000000000000000000000000000000000000000073ffffffffffffffffffffffffffffffffffffffff1663fa31de01828a8a866040518563ffffffff1660e01b815260040161057193929190610e89565b60206040518083038185885af115801561058f573d6000803e3d6000fd5b50505050506040513d601f19601f820116820180604052508101906105b49190610f35565b9550803411156106775760003373ffffffffffffffffffffffffffffffffffffffff1682346105e39190610f62565b6040516105ef90610fc7565b60006040518083038185875af1925050503d806000811461062c576040519150601f19603f3d011682016040523d82523d6000602084013e610631565b606091505b5050905080610675576040517f08c379a000000000000000000000000000000000000000000000000000000000815260040161066c90611039565b60405180910390fd5b505b868863ffffffff163373ffffffffffffffffffffffffffffffffffffffff167fdecbd4dacf0e03213f5e9b20a80c768dd434053f31fe165cf2b12ec6ad79058888878b6040516106c993929190611059565b60405180910390a4505050505092915050565b60036020528060005260406000206000915054906101000a900467ffffffffffffffff1681565b60008054906101000a900473ffffffffffffffffffffffffffffffffffffffff1681565b600160009054906101000a900473ffffffffffffffffffffffffffffffffffffffff1673ffffffffffffffffffffffffffffffffffffffff163373ffffffffffffffffffffffffffffffffffffffff16146107b7576040517f08c379a00000000000000000000000000000000000000000000000000000000081526004016107ae906110dc565b60405180910390fd5b7f26f2ec880811d169d36c8a8ac9a46638434b879aa9ebb5ec4840388144425aa460008054906101000a900473ffffffffffffffffffffffffffffffffffffffff16826040516108089291906110fc565b60405180910390a1806000806101000a81548173ffffffffffffffffffffffffffffffffffffffff021916908373ffffffffffffffffffffffffffffffffffffffff16021790555050565b6201518081565b60026020528060005260406000206000915054906101000a900467ffffffffffffffff1681565b6000806108fb33670de0b6b3a7640000426001600260003373ffffffffffffffffffffffffffffffffffffffff1673ffffffffffffffffffffffffffffffffffffffff16815260200190815260200160002060009054906101000a900467ffffffffffffffff166108f29190610d7e565b6000801b610a5a565b90507f000000000000000000000000000000000000000000000000000000000000000073ffffffffffffffffffffffffffffffffffffffff16639c42bd188585846040518463ffffffff1660e01b815260040161095a93929190610e89565b602060405180830381865afa158015610977573d6000803e3d6000fd5b505050506040513d601f19601f8201168201806040525081019061099b9190610ef3565b91505092915050565b7f000000000000000000000000000000000000000000000000000000000000000081565b600160009054906101000a900473ffffffffffffffffffffffffffffffffffffffff1681565b600080670de0b6b3a76400006103e88473ffffffffffffffffffffffffffffffffffffffff16610a1e9190611154565b610a289190611185565b91508242604051602001610a3d929190611230565b604051602081830303815290604052805190602001209050915091565b6060858546868686604051602001610a779695949392919061125c565b604051602081830303815290604052905095945050505050565b600080fd5b600063ffffffff82169050919050565b610aaf81610a96565b8114610aba57600080fd5b50565b600081359050610acc81610aa6565b92915050565b6000819050919050565b610ae581610ad2565b8114610af057600080fd5b50565b600081359050610b0281610adc565b92915050565b60008060408385031215610b1f57610b1e610a91565b5b6000610b2d85828601610abd565b9250506020610b3e85828601610af3565b9150509250929050565b610b5181610ad2565b82525050565b6000602082019050610b6c6000830184610b48565b92915050565b600073ffffffffffffffffffffffffffffffffffffffff82169050919050565b6000610b9d82610b72565b9050919050565b610bad81610b92565b8114610bb857600080fd5b50565b600081359050610bca81610ba4565b92915050565b600060208284031215610be657610be5610a91565b5b6000610bf484828501610bbb565b91505092915050565b600067ffffffffffffffff82169050919050565b610c1a81610bfd565b82525050565b6000602082019050610c356000830184610c11565b92915050565b6000819050919050565b6000610c60610c5b610c5684610b72565b610c3b565b610b72565b9050919050565b6000610c7282610c45565b9050919050565b6000610c8482610c67565b9050919050565b610c9481610c79565b82525050565b6000602082019050610caf6000830184610c8b565b92915050565b6000819050919050565b610cc881610cb5565b82525050565b6000602082019050610ce36000830184610cbf565b92915050565b6000610cf482610c67565b9050919050565b610d0481610ce9565b82525050565b6000602082019050610d1f6000830184610cfb565b92915050565b610d2e81610b92565b82525050565b6000602082019050610d496000830184610d25565b92915050565b7f4e487b7100000000000000000000000000000000000000000000000000000000600052601160045260246000fd5b6000610d8982610bfd565b9150610d9483610bfd565b9250828201905067ffffffffffffffff811115610db457610db3610d4f565b5b92915050565b6000610dc582610bfd565b915067ffffffffffffffff8203610ddf57610dde610d4f565b5b600182019050919050565b610df381610a96565b82525050565b600081519050919050565b600082825260208201905092915050565b60005b83811015610e33578082015181840152602081019050610e18565b60008484015250505050565b6000601f19601f8301169050919050565b6000610e5b82610df9565b610e658185610e04565b9350610e75818560208601610e15565b610e7e81610e3f565b840191505092915050565b6000606082019050610e9e6000830186610dea565b610eab6020830185610b48565b8181036040830152610ebd8184610e50565b9050949350505050565b610ed081610cb5565b8114610edb57600080fd5b50565b600081519050610eed81610ec7565b92915050565b600060208284031215610f0957610f08610a91565b5b6000610f1784828501610ede565b91505092915050565b600081519050610f2f81610adc565b92915050565b600060208284031215610f4b57610f4a610a91565b5b6000610f5984828501610f20565b91505092915050565b6000610f6d82610cb5565b9150610f7883610cb5565b9250828203905081811115610f9057610f8f610d4f565b5b92915050565b600081905092915050565b50565b6000610fb1600083610f96565b9150610fbc82610fa1565b600082019050919050565b6000610fd282610fa4565b9150819050919050565b600082825260208201905092915050565b7f526566756e64206661696c656400000000000000000000000000000000000000600082015250565b6000611023600d83610fdc565b915061102e82610fed565b602082019050919050565b6000602082019050818103600083015261105281611016565b9050919050565b600060608201905061106e6000830186610cbf565b61107b6020830185610c11565b6110886040830184610b48565b949350505050565b7f4e6f742061646d696e0000000000000000000000000000000000000000000000600082015250565b60006110c6600983610fdc565b91506110d182611090565b602082019050919050565b600060208201905081810360008301526110f5816110b9565b9050919050565b60006040820190506111116000830185610d25565b61111e6020830184610d25565b9392505050565b7f4e487b7100000000000000000000000000000000000000000000000000000000600052601260045260246000fd5b600061115f82610cb5565b915061116a83610cb5565b92508261117a57611179611125565b5b828206905092915050565b600061119082610cb5565b915061119b83610cb5565b92508282026111a981610cb5565b915082820484148315176111c0576111bf610d4f565b5b5092915050565b60008160601b9050919050565b60006111df826111c7565b9050919050565b60006111f1826111d4565b9050919050565b61120961120482610b92565b6111e6565b82525050565b6000819050919050565b61122a61122582610cb5565b61120f565b82525050565b600061123c82856111f8565b60148201915061124c8284611219565b6020820191508190509392505050565b600060c0820190506112716000830189610d25565b61127e6020830188610cbf565b61128b6040830187610cbf565b6112986060830186610c11565b6112a56080830185610c11565b6112b260a0830184610b48565b97965050505050505056fea26469706673582212203f0daa5610172cbb09c9bcce05f349723b75854f5c7ab009b3255e1e6ea4bab364736f6c63430008130033","linkReferences":{}},"methodIdentifiers":{"COOLDOWN_PERIOD()":"6e99d52f","admin()":"f851a440","bridgeReputation(uint32,bytes32)":"162af8f5","erc8004Registry()":"5c30a8e1","lastBridgeTime(address)":"319e38f6","mailbox()":"d5438eae","nonces(address)":"7ecebe00","quoteDispatch(uint32,bytes32)":"bf3cf0d3","setERC8004Registry(address)":"6b249af8"},"id":0}